{
  "contractName": "Banking",
  "abi": [
    {
      "inputs": [],
      "payable": false,
      "stateMutability": "nonpayable",
      "type": "constructor"
    },
    {
      "constant": true,
      "inputs": [
        {
          "internalType": "uint256",
          "name": "",
          "type": "uint256"
        }
      ],
      "name": "accounts",
      "outputs": [
        {
          "internalType": "uint256",
          "name": "serial",
          "type": "uint256"
        },
        {
          "internalType": "uint256",
          "name": "createdAt",
          "type": "uint256"
        },
        {
          "internalType": "string",
          "name": "name",
          "type": "string"
        },
        {
          "internalType": "string",
          "name": "location",
          "type": "string"
        },
        {
          "internalType": "address",
          "name": "creator",
          "type": "address"
        },
        {
          "internalType": "uint256",
          "name": "balance",
          "type": "uint256"
        },
        {
          "internalType": "bool",
          "name": "doesExist",
          "type": "bool"
        }
      ],
      "payable": false,
      "stateMutability": "view",
      "type": "function"
    },
    {
      "constant": true,
      "inputs": [],
      "name": "bankBalance",
      "outputs": [
        {
          "internalType": "uint256",
          "name": "",
          "type": "uint256"
        }
      ],
      "payable": false,
      "stateMutability": "view",
      "type": "function"
    },
    {
      "constant": true,
      "inputs": [],
      "name": "serialNumber",
      "outputs": [
        {
          "internalType": "uint256",
          "name": "",
          "type": "uint256"
        }
      ],
      "payable": false,
      "stateMutability": "view",
      "type": "function"
    },
    {
      "constant": true,
      "inputs": [],
      "name": "transaction",
      "outputs": [
        {
          "internalType": "uint256",
          "name": "",
          "type": "uint256"
        }
      ],
      "payable": false,
      "stateMutability": "view",
      "type": "function"
    },
    {
      "constant": true,
      "inputs": [
        {
          "internalType": "uint256",
          "name": "",
          "type": "uint256"
        }
      ],
      "name": "transactions",
      "outputs": [
        {
          "internalType": "uint256",
          "name": "transacNum",
          "type": "uint256"
        },
        {
          "internalType": "uint256",
          "name": "currentBalance",
          "type": "uint256"
        },
        {
          "internalType": "uint256",
          "name": "amountTransacted",
          "type": "uint256"
        },
        {
          "internalType": "uint256",
          "name": "createdAt",
          "type": "uint256"
        },
        {
          "internalType": "string",
          "name": "transacType",
          "type": "string"
        },
        {
          "internalType": "uint256",
          "name": "accountSerialNumber",
          "type": "uint256"
        }
      ],
      "payable": false,
      "stateMutability": "view",
      "type": "function"
    },
    {
      "constant": false,
      "inputs": [
        {
          "internalType": "address payable",
          "name": "_creator",
          "type": "address"
        },
        {
          "internalType": "string",
          "name": "_name",
          "type": "string"
        },
        {
          "internalType": "string",
          "name": "_location",
          "type": "string"
        }
      ],
      "name": "createAccount",
      "outputs": [],
      "payable": true,
      "stateMutability": "payable",
      "type": "function"
    },
    {
      "constant": false,
      "inputs": [
        {
          "internalType": "uint256",
          "name": "_serial",
          "type": "uint256"
        },
        {
          "internalType": "uint256",
          "name": "_amount",
          "type": "uint256"
        },
        {
          "internalType": "address payable",
          "name": "_creator",
          "type": "address"
        }
      ],
      "name": "addBalance",
      "outputs": [],
      "payable": true,
      "stateMutability": "payable",
      "type": "function"
    },
    {
      "constant": false,
      "inputs": [
        {
          "internalType": "uint256",
          "name": "_serial",
          "type": "uint256"
        },
        {
          "internalType": "uint256",
          "name": "_amount",
          "type": "uint256"
        },
        {
          "internalType": "address payable",
          "name": "_creator",
          "type": "address"
        }
      ],
      "name": "withdrawBalance",
      "outputs": [
        {
          "internalType": "bool",
          "name": "_success",
          "type": "bool"
        }
      ],
      "payable": false,
      "stateMutability": "nonpayable",
      "type": "function"
    },
    {
      "constant": false,
      "inputs": [
        {
          "internalType": "uint256",
          "name": "_amount",
          "type": "uint256"
        },
        {
          "internalType": "uint256",
          "name": "_serial_2",
          "type": "uint256"
        },
        {
          "internalType": "uint256",
          "name": "_serial",
          "type": "uint256"
        }
      ],
      "name": "transactAmount",
      "outputs": [],
      "payable": false,
      "stateMutability": "nonpayable",
      "type": "function"
    },
    {
      "constant": true,
      "inputs": [
        {
          "internalType": "uint256",
          "name": "_serial",
          "type": "uint256"
        }
      ],
      "name": "getBalance",
      "outputs": [
        {
          "internalType": "uint256",
          "name": "",
          "type": "uint256"
        }
      ],
      "payable": false,
      "stateMutability": "view",
      "type": "function"
    },
    {
      "constant": true,
      "inputs": [],
      "name": "getContractBalance",
      "outputs": [
        {
          "internalType": "uint256",
          "name": "",
          "type": "uint256"
        }
      ],
      "payable": false,
      "stateMutability": "view",
      "type": "function"
    }
  ],
  "bytecode": "0x608060405260008055600060015560006002553480156200001f57600080fd5b506040518060e00160405280600081526020014281526020016040518060400160405280600881526020017f457468657265616c00000000000000000000000000000000000000000000000081525081526020016040518060400160405280600c81526020017f4e4954204475726761707572000000000000000000000000000000000000000081525081526020013073ffffffffffffffffffffffffffffffffffffffff168152602001600081526020016001151581525060046000808152602001908152602001600020600082015181600001556020820151816001015560408201518160020190805190602001906200011d929190620001b7565b5060608201518160030190805190602001906200013c929190620001b7565b5060808201518160040160006101000a81548173ffffffffffffffffffffffffffffffffffffffff021916908373ffffffffffffffffffffffffffffffffffffffff16021790555060a0820151816005015560c08201518160060160006101000a81548160ff02191690831515021790555090505062000266565b828054600181600116156101000203166002900490600052602060002090601f016020900481019282601f10620001fa57805160ff19168380011785556200022b565b828001600101855582156200022b579182015b828111156200022a5782518255916020019190600101906200020d565b5b5090506200023a91906200023e565b5090565b6200026391905b808211156200025f57600081600090555060010162000245565b5090565b90565b61130c80620002766000396000f3fe60806040526004361061009c5760003560e01c80636f9fb98a116100645780636f9fb98a146103075780639ace38c214610332578063c99de57e14610409578063e15cdcc414610434578063f2a40db81461048c578063fb3d4771146105ff5761009c565b80631e010439146100a157806328657aa5146100f05780632a0daeea1461011b5780633bd8b71d146101465780634dbe445414610195575b600080fd5b3480156100ad57600080fd5b506100da600480360360208110156100c457600080fd5b810190808035906020019092919050505061067c565b6040518082815260200191505060405180910390f35b3480156100fc57600080fd5b506101056106a1565b6040518082815260200191505060405180910390f35b34801561012757600080fd5b506101306106a7565b6040518082815260200191505060405180910390f35b34801561015257600080fd5b506101936004803603606081101561016957600080fd5b810190808035906020019092919080359060200190929190803590602001909291905050506106ad565b005b610305600480360360608110156101ab57600080fd5b81019080803573ffffffffffffffffffffffffffffffffffffffff169060200190929190803590602001906401000000008111156101e857600080fd5b8201836020820111156101fa57600080fd5b8035906020019184600183028401116401000000008311171561021c57600080fd5b91908080601f016020809104026020016040519081016040528093929190818152602001838380828437600081840152601f19601f8201169050808301925050505050505091929192908035906020019064010000000081111561027f57600080fd5b82018360208201111561029157600080fd5b803590602001918460018302840111640100000000831117156102b357600080fd5b91908080601f016020809104026020016040519081016040528093929190818152602001838380828437600081840152601f19601f8201169050808301925050505050505091929192905050506108c4565b005b34801561031357600080fd5b5061031c610b83565b6040518082815260200191505060405180910390f35b34801561033e57600080fd5b5061036b6004803603602081101561035557600080fd5b8101908080359060200190929190505050610b8b565b6040518087815260200186815260200185815260200184815260200180602001838152602001828103825284818151815260200191508051906020019080838360005b838110156103c95780820151818401526020810190506103ae565b50505050905090810190601f1680156103f65780820380516001836020036101000a031916815260200191505b5097505050505050505060405180910390f35b34801561041557600080fd5b5061041e610c5f565b6040518082815260200191505060405180910390f35b61048a6004803603606081101561044a57600080fd5b810190808035906020019092919080359060200190929190803573ffffffffffffffffffffffffffffffffffffffff169060200190929190505050610c65565b005b34801561049857600080fd5b506104c5600480360360208110156104af57600080fd5b8101908080359060200190929190505050610e55565b6040518088815260200187815260200180602001806020018673ffffffffffffffffffffffffffffffffffffffff1673ffffffffffffffffffffffffffffffffffffffff16815260200185815260200184151515158152602001838103835288818151815260200191508051906020019080838360005b8381101561055757808201518184015260208101905061053c565b50505050905090810190601f1680156105845780820380516001836020036101000a031916815260200191505b50838103825287818151815260200191508051906020019080838360005b838110156105bd5780820151818401526020810190506105a2565b50505050905090810190601f1680156105ea5780820380516001836020036101000a031916815260200191505b50995050505050505050505060405180910390f35b34801561060b57600080fd5b506106626004803603606081101561062257600080fd5b810190808035906020019092919080359060200190929190803573ffffffffffffffffffffffffffffffffffffffff169060200190929190505050610ff4565b604051808215151515815260200191505060405180910390f35b6000806004600084815260200190815260200160002060050154905080915050919050565b60015481565b60005481565b6001670de0b6b3a764000084816106c057fe5b040160046000838152602001908152602001600020600501541061085157670de0b6b3a764000083816106ef57fe5b046004600083815260200190815260200160002060050160008282540392505081905550670de0b6b3a7640000838161072457fe5b0460046000848152602001908152602001600020600501600082825401925050819055506002600081548092919060010191905055506040518060c00160405280600254815260200160046000848152602001908152602001600020600501548152602001670de0b6b3a7640000858161079a57fe5b0481526020014281526020016040518060400160405280601081526020017f5472616e736665722042616c616e63650000000000000000000000000000000081525081526020018281525060036000600254815260200190815260200160002060008201518160000155602082015181600101556040820151816002015560608201518160030155608082015181600401908051906020019061083e929190611232565b5060a082015181600501559050506108bf565b6040517f08c379a00000000000000000000000000000000000000000000000000000000081526004018080602001828103825260128152602001807f496e73756666696369656e742046756e6473000000000000000000000000000081525060200191505060405180910390fd5b505050565b60038373ffffffffffffffffffffffffffffffffffffffff163110610b105760008081548092919060010191905055506040518060e0016040528060005481526020014281526020018381526020018281526020018473ffffffffffffffffffffffffffffffffffffffff1681526020016002815260200160011515815250600460008054815260200190815260200160002060008201518160000155602082015181600101556040820151816002019080519060200190610987929190611232565b5060608201518160030190805190602001906109a4929190611232565b5060808201518160040160006101000a81548173ffffffffffffffffffffffffffffffffffffffff021916908373ffffffffffffffffffffffffffffffffffffffff16021790555060a0820151816005015560c08201518160060160006101000a81548160ff0219169083151502179055509050506002600081548092919060010191905055506040518060c00160405280600254815260200160028152602001600281526020014281526020016040518060400160405280601081526020017f4163636f756e74204372656174696f6e000000000000000000000000000000008152508152602001600054815250600360006002548152602001908152602001600020600082015181600001556020820151816001015560408201518160020155606082015181600301556080820151816004019080519060200190610aec929190611232565b5060a082015181600501559050506002600160008282540192505081905550610b7e565b6040517f08c379a00000000000000000000000000000000000000000000000000000000081526004018080602001828103825260128152602001807f496e73756666696369656e742046756e6473000000000000000000000000000081525060200191505060405180910390fd5b505050565b600047905090565b6003602052806000526040600020600091509050806000015490806001015490806002015490806003015490806004018054600181600116156101000203166002900480601f016020809104026020016040519081016040528092919081815260200182805460018160011615610100020316600290048015610c4f5780601f10610c2457610100808354040283529160200191610c4f565b820191906000526020600020905b815481529060010190602001808311610c3257829003601f168201915b5050505050908060050154905086565b60025481565b6001670de0b6b3a76400008381610c7857fe5b04018173ffffffffffffffffffffffffffffffffffffffff163110610de257670de0b6b3a76400008281610ca857fe5b046004600085815260200190815260200160002060050160008282540192505081905550670de0b6b3a76400008281610cdd57fe5b046001600082825401925050819055506002600081548092919060010191905055506040518060c0016040528060025481526020016001548152602001670de0b6b3a76400008481610d2b57fe5b0481526020014281526020016040518060400160405280600b81526020017f4164642042616c616e6365000000000000000000000000000000000000000000815250815260200184815250600360006002548152602001908152602001600020600082015181600001556020820151816001015560408201518160020155606082015181600301556080820151816004019080519060200190610dcf929190611232565b5060a08201518160050155905050610e50565b6040517f08c379a00000000000000000000000000000000000000000000000000000000081526004018080602001828103825260128152602001807f496e73756666696369656e742046756e6473000000000000000000000000000081525060200191505060405180910390fd5b505050565b6004602052806000526040600020600091509050806000015490806001015490806002018054600181600116156101000203166002900480601f016020809104026020016040519081016040528092919081815260200182805460018160011615610100020316600290048015610f0d5780601f10610ee257610100808354040283529160200191610f0d565b820191906000526020600020905b815481529060010190602001808311610ef057829003601f168201915b505050505090806003018054600181600116156101000203166002900480601f016020809104026020016040519081016040528092919081815260200182805460018160011615610100020316600290048015610fab5780601f10610f8057610100808354040283529160200191610fab565b820191906000526020600020905b815481529060010190602001808311610f8e57829003601f168201915b5050505050908060040160009054906101000a900473ffffffffffffffffffffffffffffffffffffffff16908060050154908060060160009054906101000a900460ff16905087565b60006001670de0b6b3a7640000848161100957fe5b04016004600086815260200190815260200160002060050154106111bd578173ffffffffffffffffffffffffffffffffffffffff166108fc849081150290604051600060405180830381858888f1935050505015801561106d573d6000803e3d6000fd5b50670de0b6b3a7640000838161107f57fe5b046004600086815260200190815260200160002060050160008282540392505081905550670de0b6b3a764000083816110b457fe5b046001600082825403925050819055506002600081548092919060010191905055506040518060c0016040528060025481526020016001548152602001670de0b6b3a7640000858161110257fe5b0481526020014281526020016040518060400160405280601081526020017f57697468647261772042616c616e6365000000000000000000000000000000008152508152602001858152506003600060025481526020019081526020016000206000820151816000015560208201518160010155604082015181600201556060820151816003015560808201518160040190805190602001906111a6929190611232565b5060a082015181600501559050506001905061122b565b6040517f08c379a00000000000000000000000000000000000000000000000000000000081526004018080602001828103825260128152602001807f496e73756666696369656e742046756e6473000000000000000000000000000081525060200191505060405180910390fd5b9392505050565b828054600181600116156101000203166002900490600052602060002090601f016020900481019282601f1061127357805160ff19168380011785556112a1565b828001600101855582156112a1579182015b828111156112a0578251825591602001919060010190611285565b5b5090506112ae91906112b2565b5090565b6112d491905b808211156112d05760008160009055506001016112b8565b5090565b9056fea265627a7a7231582048307893bbee77836bb46f9e39c5881558ca21e035f8b998691b6c2d97e8c0af64736f6c63430005100032",
  "source": "pragma solidity >0.5.1;\n\ncontract Banking {\n    uint256 public serialNumber = 0;\n\n    uint256 public bankBalance = 0;\n\n    uint256 public transaction = 0;\n\n    struct Transaction {\n        uint256 transacNum;\n        uint256 currentBalance;\n        uint256 amountTransacted;\n        uint256 createdAt;\n        string transacType;\n        uint256 accountSerialNumber; \n    }\n\n    mapping(uint256 => Transaction) public transactions;\n\n\n    struct Account {\n        uint256 serial;\n        uint256 createdAt;\n        string name;\n        string location;\n        address creator;\n        uint256 balance;\n        bool doesExist;\n    }\n\n    constructor() public {\n        accounts[0] = Account(\n            0,\n            block.timestamp,\n            \"Ethereal\",\n            \"NIT Durgapur\",\n            address(this),\n            0,\n            true\n        );\n    }\n\n    mapping(uint256 => Account) public accounts;\n\n    function createAccount(\n        address payable _creator,\n        string memory _name,\n        string memory _location\n    ) public payable {\n        if (_creator.balance >= 3) {\n            serialNumber++;\n\n            accounts[serialNumber] = Account(\n                serialNumber,\n                block.timestamp,\n                _name,\n                _location,\n                _creator,\n                2,\n                true\n            );\n\n            transaction++;\n\n            transactions[transaction] = Transaction(\n                transaction,\n                2,\n                2,\n                block.timestamp,\n                \"Account Creation\",\n                serialNumber\n            );\n\n            bankBalance += 2;\n        } else {\n            revert(\"Insufficient Funds\");\n        }\n    }\n\n    function addBalance(\n        uint256 _serial,\n        uint256 _amount,\n        address payable _creator\n    ) public payable {\n        if (_creator.balance >= _amount / 1000000000000000000 + 1) {\n            accounts[_serial].balance += _amount / 1000000000000000000;\n            bankBalance += _amount / 1000000000000000000;\n            transaction++;\n            transactions[transaction] = Transaction(\n                transaction,\n                bankBalance,\n                _amount / 1000000000000000000,\n                block.timestamp,\n                \"Add Balance\",\n                _serial\n            );\n\n        } else {\n            revert(\"Insufficient Funds\");\n        }\n    }\n\n    function withdrawBalance(\n        uint256 _serial,\n        uint256 _amount,\n        address payable _creator\n    )\n\n    external returns (bool _success) {\n        if(accounts[_serial].balance >= _amount / 1000000000000000000 + 1) {\n\n            _creator.transfer(_amount);\n            accounts[_serial].balance -= _amount / 1000000000000000000;\n            bankBalance -= _amount / 1000000000000000000;\n            transaction++;\n            transactions[transaction] = Transaction(\n                transaction,\n                bankBalance,\n                _amount / 1000000000000000000,\n                block.timestamp,\n                \"Withdraw Balance\",\n                _serial\n            );\n            return true;\n        } else {\n            revert(\"Insufficient Funds\");\n        }\n    }\n\n    function transactAmount (\n        uint256 _amount,\n        uint256 _serial_2,\n        uint256 _serial\n    ) public {\n        if(accounts[_serial].balance >= _amount / 1000000000000000000 +1 ){\n            accounts[_serial].balance -= _amount / 1000000000000000000;\n            accounts[_serial_2].balance += _amount / 1000000000000000000;\n            transaction++;\n            transactions[transaction] = Transaction(\n                transaction,\n                accounts[_serial].balance,\n                _amount / 1000000000000000000,\n                block.timestamp,\n                \"Transfer Balance\",\n                _serial\n            );\n        } else {\n            revert(\"Insufficient Funds\");\n        }\n    }\n\n    function getBalance(uint256 _serial) public view returns (uint256) {\n        uint256 bal = accounts[_serial].balance;\n        return bal;\n    }\n\n    function getContractBalance() external view returns (uint256) {\n        return address(this).balance;\n    }\n}\n",
  "sourcePath": "C:/Users/91704/Desktop/Ethereal/contracts/Banking.sol",
  "compiler": {
    "name": "solc",
    "version": "0.5.16+commit.9c3226ce.Emscripten.clang"
  },
  "schemaVersion": "3.2.3",
  "updatedAt": "2022-01-02T11:46:30.302Z",
  "networkType": "ethereum",
  "devdoc": {
    "methods": {}
  },
  "userdoc": {
    "methods": {}
  }
}